{
  "_format": "hh-sol-artifact-1",
  "contractName": "Delance",
  "sourceName": "contracts/Delance.sol",
  "abi": [
    {
      "inputs": [
        {
          "internalType": "address",
          "name": "_freelancer",
          "type": "address"
        }
      ],
      "stateMutability": "payable",
      "type": "constructor"
    },
    {
      "inputs": [],
      "name": "ReentrancyGuardReentrantCall",
      "type": "error"
    },
    {
      "anonymous": false,
      "inputs": [
        {
          "indexed": false,
          "internalType": "uint256",
          "name": "newDeadline",
          "type": "uint256"
        }
      ],
      "name": "DeadlineUpdated",
      "type": "event"
    },
    {
      "anonymous": false,
      "inputs": [
        {
          "indexed": true,
          "internalType": "address",
          "name": "newFreelancer",
          "type": "address"
        }
      ],
      "name": "FreelancerUpdated",
      "type": "event"
    },
    {
      "anonymous": false,
      "inputs": [
        {
          "indexed": true,
          "internalType": "address",
          "name": "from",
          "type": "address"
        },
        {
          "indexed": false,
          "internalType": "uint256",
          "name": "amount",
          "type": "uint256"
        }
      ],
      "name": "FundsReceived",
      "type": "event"
    },
    {
      "anonymous": false,
      "inputs": [
        {
          "indexed": true,
          "internalType": "uint256",
          "name": "index",
          "type": "uint256"
        },
        {
          "indexed": false,
          "internalType": "uint256",
          "name": "amount",
          "type": "uint256"
        }
      ],
      "name": "RequestApproved",
      "type": "event"
    },
    {
      "anonymous": false,
      "inputs": [
        {
          "indexed": true,
          "internalType": "uint256",
          "name": "index",
          "type": "uint256"
        },
        {
          "indexed": false,
          "internalType": "string",
          "name": "title",
          "type": "string"
        },
        {
          "indexed": false,
          "internalType": "uint256",
          "name": "amount",
          "type": "uint256"
        }
      ],
      "name": "RequestCreated",
      "type": "event"
    },
    {
      "inputs": [
        {
          "internalType": "uint256",
          "name": "index",
          "type": "uint256"
        }
      ],
      "name": "approveRequest",
      "outputs": [],
      "stateMutability": "nonpayable",
      "type": "function"
    },
    {
      "inputs": [
        {
          "internalType": "string",
          "name": "_title",
          "type": "string"
        },
        {
          "internalType": "uint256",
          "name": "_amount",
          "type": "uint256"
        }
      ],
      "name": "createRequest",
      "outputs": [],
      "stateMutability": "nonpayable",
      "type": "function"
    },
    {
      "inputs": [],
      "name": "deadline",
      "outputs": [
        {
          "internalType": "uint256",
          "name": "",
          "type": "uint256"
        }
      ],
      "stateMutability": "view",
      "type": "function"
    },
    {
      "inputs": [],
      "name": "employer",
      "outputs": [
        {
          "internalType": "address",
          "name": "",
          "type": "address"
        }
      ],
      "stateMutability": "view",
      "type": "function"
    },
    {
      "inputs": [],
      "name": "freelancer",
      "outputs": [
        {
          "internalType": "address",
          "name": "",
          "type": "address"
        }
      ],
      "stateMutability": "view",
      "type": "function"
    },
    {
      "inputs": [],
      "name": "getAllRequests",
      "outputs": [
        {
          "components": [
            {
              "internalType": "string",
              "name": "title",
              "type": "string"
            },
            {
              "internalType": "uint256",
              "name": "amount",
              "type": "uint256"
            },
            {
              "internalType": "bool",
              "name": "locked",
              "type": "bool"
            },
            {
              "internalType": "bool",
              "name": "paid",
              "type": "bool"
            }
          ],
          "internalType": "struct Delance.Request[]",
          "name": "",
          "type": "tuple[]"
        }
      ],
      "stateMutability": "view",
      "type": "function"
    },
    {
      "inputs": [],
      "name": "getContractBalance",
      "outputs": [
        {
          "internalType": "uint256",
          "name": "",
          "type": "uint256"
        }
      ],
      "stateMutability": "view",
      "type": "function"
    },
    {
      "inputs": [],
      "name": "price",
      "outputs": [
        {
          "internalType": "uint256",
          "name": "",
          "type": "uint256"
        }
      ],
      "stateMutability": "view",
      "type": "function"
    },
    {
      "inputs": [
        {
          "internalType": "uint256",
          "name": "",
          "type": "uint256"
        }
      ],
      "name": "requests",
      "outputs": [
        {
          "internalType": "string",
          "name": "title",
          "type": "string"
        },
        {
          "internalType": "uint256",
          "name": "amount",
          "type": "uint256"
        },
        {
          "internalType": "bool",
          "name": "locked",
          "type": "bool"
        },
        {
          "internalType": "bool",
          "name": "paid",
          "type": "bool"
        }
      ],
      "stateMutability": "view",
      "type": "function"
    },
    {
      "inputs": [
        {
          "internalType": "uint256",
          "name": "_deadline",
          "type": "uint256"
        }
      ],
      "name": "setDeadline",
      "outputs": [],
      "stateMutability": "nonpayable",
      "type": "function"
    },
    {
      "inputs": [
        {
          "internalType": "address",
          "name": "_freelancer",
          "type": "address"
        }
      ],
      "name": "setFreelancer",
      "outputs": [],
      "stateMutability": "nonpayable",
      "type": "function"
    },
    {
      "stateMutability": "payable",
      "type": "receive"
    }
  ],
  "bytecode": "0x6080604052604051611b8d380380611b8d83398181016040528101906100259190610177565b600160008190555060003411610070576040517f08c379a000000000000000000000000000000000000000000000000000000000815260040161006790610201565b60405180910390fd5b80600260006101000a81548173ffffffffffffffffffffffffffffffffffffffff021916908373ffffffffffffffffffffffffffffffffffffffff16021790555033600160006101000a81548173ffffffffffffffffffffffffffffffffffffffff021916908373ffffffffffffffffffffffffffffffffffffffff16021790555062278d0042610101919061025a565b600381905550346004819055505061028e565b600080fd5b600073ffffffffffffffffffffffffffffffffffffffff82169050919050565b600061014482610119565b9050919050565b61015481610139565b811461015f57600080fd5b50565b6000815190506101718161014b565b92915050565b60006020828403121561018d5761018c610114565b5b600061019b84828501610162565b91505092915050565b600082825260208201905092915050565b7f4d7573742066756e642074686520636f6e747261637400000000000000000000600082015250565b60006101eb6016836101a4565b91506101f6826101b5565b602082019050919050565b6000602082019050818103600083015261021a816101de565b9050919050565b6000819050919050565b7f4e487b7100000000000000000000000000000000000000000000000000000000600052601160045260246000fd5b600061026582610221565b915061027083610221565b92508282019050808211156102885761028761022b565b5b92915050565b6118f08061029d6000396000f3fe6080604052600436106100a05760003560e01c8063a035b1fe11610064578063a035b1fe146101fb578063a37dda2c14610226578063aa6e90c014610251578063ae200e791461027a578063d7d1bbdb146102a5578063fb1a002a146102ce5761010e565b80631265e84814610113578063195199f61461013c57806329dcb0cf146101655780636f9fb98a1461019057806381d12c58146101bb5761010e565b3661010e5734600460008282546100b79190610c9e565b925050819055503373ffffffffffffffffffffffffffffffffffffffff167f8e47b87b0ef542cdfa1659c551d88bad38aa7f452d2bbb349ab7530dfec8be8f346040516101049190610ce1565b60405180910390a2005b600080fd5b34801561011f57600080fd5b5061013a60048036038101906101359190610d6e565b6102f9565b005b34801561014857600080fd5b50610163600480360381019061015e9190610dc7565b610410565b005b34801561017157600080fd5b5061017a6104e1565b6040516101879190610ce1565b60405180910390f35b34801561019c57600080fd5b506101a56104e7565b6040516101b29190610ce1565b60405180910390f35b3480156101c757600080fd5b506101e260048036038101906101dd9190610dc7565b6104ef565b6040516101f29493929190610e9f565b60405180910390f35b34801561020757600080fd5b506102106105d1565b60405161021d9190610ce1565b60405180910390f35b34801561023257600080fd5b5061023b6105d7565b6040516102489190610efa565b60405180910390f35b34801561025d57600080fd5b506102786004803603810190610273919061104a565b6105fd565b005b34801561028657600080fd5b5061028f6107d3565b60405161029c9190610efa565b60405180910390f35b3480156102b157600080fd5b506102cc60048036038101906102c79190610dc7565b6107f9565b005b3480156102da57600080fd5b506102e3610ae4565b6040516102f09190611233565b60405180910390f35b600160009054906101000a900473ffffffffffffffffffffffffffffffffffffffff1673ffffffffffffffffffffffffffffffffffffffff163373ffffffffffffffffffffffffffffffffffffffff1614610389576040517f08c379a0000000000000000000000000000000000000000000000000000000008152600401610380906112a1565b60405180910390fd5b80600260006101000a81548173ffffffffffffffffffffffffffffffffffffffff021916908373ffffffffffffffffffffffffffffffffffffffff1602179055508073ffffffffffffffffffffffffffffffffffffffff167f969d76ab2fec3b414352607ea97e2aea3f3142f893a1ce9601ef8c3f65e5a61260405160405180910390a250565b600160009054906101000a900473ffffffffffffffffffffffffffffffffffffffff1673ffffffffffffffffffffffffffffffffffffffff163373ffffffffffffffffffffffffffffffffffffffff16146104a0576040517f08c379a0000000000000000000000000000000000000000000000000000000008152600401610497906112a1565b60405180910390fd5b806003819055507fdb00f0341e024be397e058a193a27b85cc3e7f921640be77ddf155c9f8d37c5a816040516104d69190610ce1565b60405180910390a150565b60035481565b600047905090565b600581815481106104ff57600080fd5b9060005260206000209060030201600091509050806000018054610522906112f0565b80601f016020809104026020016040519081016040528092919081815260200182805461054e906112f0565b801561059b5780601f106105705761010080835404028352916020019161059b565b820191906000526020600020905b81548152906001019060200180831161057e57829003601f168201915b5050505050908060010154908060020160009054906101000a900460ff16908060020160019054906101000a900460ff16905084565b60045481565b600260009054906101000a900473ffffffffffffffffffffffffffffffffffffffff1681565b600260009054906101000a900473ffffffffffffffffffffffffffffffffffffffff1673ffffffffffffffffffffffffffffffffffffffff163373ffffffffffffffffffffffffffffffffffffffff161461068d576040517f08c379a00000000000000000000000000000000000000000000000000000000081526004016106849061136d565b60405180910390fd5b478111156106d0576040517f08c379a00000000000000000000000000000000000000000000000000000000081526004016106c7906113d9565b60405180910390fd5b60056040518060800160405280848152602001838152602001600115158152602001600015158152509080600181540180825580915050600190039060005260206000209060030201600090919091909150600082015181600001908161073791906115a5565b506020820151816001015560408201518160020160006101000a81548160ff02191690831515021790555060608201518160020160016101000a81548160ff021916908315150217905550505060016005805490506107969190611677565b7ffd831c7c44ce8189cb2d2474d9e840354d60c0640174dbfda10485ca4934c2f783836040516107c79291906116ab565b60405180910390a25050565b600160009054906101000a900473ffffffffffffffffffffffffffffffffffffffff1681565b600160009054906101000a900473ffffffffffffffffffffffffffffffffffffffff1673ffffffffffffffffffffffffffffffffffffffff163373ffffffffffffffffffffffffffffffffffffffff1614610889576040517f08c379a0000000000000000000000000000000000000000000000000000000008152600401610880906112a1565b60405180910390fd5b610891610c15565b60058054905081106108d8576040517f08c379a00000000000000000000000000000000000000000000000000000000081526004016108cf90611727565b60405180910390fd5b6000600582815481106108ee576108ed611747565b5b90600052602060002090600302019050600115158160020160009054906101000a900460ff16151514610956576040517f08c379a000000000000000000000000000000000000000000000000000000000815260040161094d906117c2565b60405180910390fd5b600015158160020160019054906101000a900460ff161515146109ae576040517f08c379a00000000000000000000000000000000000000000000000000000000081526004016109a59061182e565b60405180910390fd5b47816001015411156109f5576040517f08c379a00000000000000000000000000000000000000000000000000000000081526004016109ec9061189a565b60405180910390fd5b60008160020160006101000a81548160ff02191690831515021790555060018160020160016101000a81548160ff021916908315150217905550600260009054906101000a900473ffffffffffffffffffffffffffffffffffffffff1673ffffffffffffffffffffffffffffffffffffffff166108fc82600101549081150290604051600060405180830381858888f19350505050158015610a9b573d6000803e3d6000fd5b50817f99593786774c6f33049716fd956b1672f46813adf0f67f51f81345b36ba0b8478260010154604051610ad09190610ce1565b60405180910390a250610ae1610c5b565b50565b60606005805480602002602001604051908101604052809291908181526020016000905b82821015610c0c5783829060005260206000209060030201604051806080016040529081600082018054610b3b906112f0565b80601f0160208091040260200160405190810160405280929190818152602001828054610b67906112f0565b8015610bb45780601f10610b8957610100808354040283529160200191610bb4565b820191906000526020600020905b815481529060010190602001808311610b9757829003601f168201915b50505050508152602001600182015481526020016002820160009054906101000a900460ff161515151581526020016002820160019054906101000a900460ff16151515158152505081526020019060010190610b08565b50505050905090565b600260005403610c51576040517f3ee5aeb500000000000000000000000000000000000000000000000000000000815260040160405180910390fd5b6002600081905550565b6001600081905550565b6000819050919050565b7f4e487b7100000000000000000000000000000000000000000000000000000000600052601160045260246000fd5b6000610ca982610c65565b9150610cb483610c65565b9250828201905080821115610ccc57610ccb610c6f565b5b92915050565b610cdb81610c65565b82525050565b6000602082019050610cf66000830184610cd2565b92915050565b6000604051905090565b600080fd5b600080fd5b600073ffffffffffffffffffffffffffffffffffffffff82169050919050565b6000610d3b82610d10565b9050919050565b610d4b81610d30565b8114610d5657600080fd5b50565b600081359050610d6881610d42565b92915050565b600060208284031215610d8457610d83610d06565b5b6000610d9284828501610d59565b91505092915050565b610da481610c65565b8114610daf57600080fd5b50565b600081359050610dc181610d9b565b92915050565b600060208284031215610ddd57610ddc610d06565b5b6000610deb84828501610db2565b91505092915050565b600081519050919050565b600082825260208201905092915050565b60005b83811015610e2e578082015181840152602081019050610e13565b60008484015250505050565b6000601f19601f8301169050919050565b6000610e5682610df4565b610e608185610dff565b9350610e70818560208601610e10565b610e7981610e3a565b840191505092915050565b60008115159050919050565b610e9981610e84565b82525050565b60006080820190508181036000830152610eb98187610e4b565b9050610ec86020830186610cd2565b610ed56040830185610e90565b610ee26060830184610e90565b95945050505050565b610ef481610d30565b82525050565b6000602082019050610f0f6000830184610eeb565b92915050565b600080fd5b600080fd5b7f4e487b7100000000000000000000000000000000000000000000000000000000600052604160045260246000fd5b610f5782610e3a565b810181811067ffffffffffffffff82111715610f7657610f75610f1f565b5b80604052505050565b6000610f89610cfc565b9050610f958282610f4e565b919050565b600067ffffffffffffffff821115610fb557610fb4610f1f565b5b610fbe82610e3a565b9050602081019050919050565b82818337600083830152505050565b6000610fed610fe884610f9a565b610f7f565b90508281526020810184848401111561100957611008610f1a565b5b611014848285610fcb565b509392505050565b600082601f83011261103157611030610f15565b5b8135611041848260208601610fda565b91505092915050565b6000806040838503121561106157611060610d06565b5b600083013567ffffffffffffffff81111561107f5761107e610d0b565b5b61108b8582860161101c565b925050602061109c85828601610db2565b9150509250929050565b600081519050919050565b600082825260208201905092915050565b6000819050602082019050919050565b600082825260208201905092915050565b60006110ee82610df4565b6110f881856110d2565b9350611108818560208601610e10565b61111181610e3a565b840191505092915050565b61112581610c65565b82525050565b61113481610e84565b82525050565b6000608083016000830151848203600086015261115782826110e3565b915050602083015161116c602086018261111c565b50604083015161117f604086018261112b565b506060830151611192606086018261112b565b508091505092915050565b60006111a9838361113a565b905092915050565b6000602082019050919050565b60006111c9826110a6565b6111d381856110b1565b9350836020820285016111e5856110c2565b8060005b858110156112215784840389528151611202858261119d565b945061120d836111b1565b925060208a019950506001810190506111e9565b50829750879550505050505092915050565b6000602082019050818103600083015261124d81846111be565b905092915050565b7f4f6e6c7920656d706c6f7965722063616e2063616c6c20746869730000000000600082015250565b600061128b601b83610dff565b915061129682611255565b602082019050919050565b600060208201905081810360008301526112ba8161127e565b9050919050565b7f4e487b7100000000000000000000000000000000000000000000000000000000600052602260045260246000fd5b6000600282049050600182168061130857607f821691505b60208210810361131b5761131a6112c1565b5b50919050565b7f4f6e6c7920667265656c616e6365722063616e2063616c6c2074686973000000600082015250565b6000611357601d83610dff565b915061136282611321565b602082019050919050565b600060208201905081810360008301526113868161134a565b9050919050565b7f416d6f756e74206578636565647320636f6e74726163742062616c616e636500600082015250565b60006113c3601f83610dff565b91506113ce8261138d565b602082019050919050565b600060208201905081810360008301526113f2816113b6565b9050919050565b60008190508160005260206000209050919050565b60006020601f8301049050919050565b600082821b905092915050565b60006008830261145b7fffffffffffffffffffffffffffffffffffffffffffffffffffffffffffffffff8261141e565b611465868361141e565b95508019841693508086168417925050509392505050565b6000819050919050565b60006114a261149d61149884610c65565b61147d565b610c65565b9050919050565b6000819050919050565b6114bc83611487565b6114d06114c8826114a9565b84845461142b565b825550505050565b600090565b6114e56114d8565b6114f08184846114b3565b505050565b5b81811015611514576115096000826114dd565b6001810190506114f6565b5050565b601f8211156115595761152a816113f9565b6115338461140e565b81016020851015611542578190505b61155661154e8561140e565b8301826114f5565b50505b505050565b600082821c905092915050565b600061157c6000198460080261155e565b1980831691505092915050565b6000611595838361156b565b9150826002028217905092915050565b6115ae82610df4565b67ffffffffffffffff8111156115c7576115c6610f1f565b5b6115d182546112f0565b6115dc828285611518565b600060209050601f83116001811461160f57600084156115fd578287015190505b6116078582611589565b86555061166f565b601f19841661161d866113f9565b60005b8281101561164557848901518255600182019150602085019450602081019050611620565b86831015611662578489015161165e601f89168261156b565b8355505b6001600288020188555050505b505050505050565b600061168282610c65565b915061168d83610c65565b92508282039050818111156116a5576116a4610c6f565b5b92915050565b600060408201905081810360008301526116c58185610e4b565b90506116d46020830184610cd2565b9392505050565b7f496e76616c6964207265717565737420696e6465780000000000000000000000600082015250565b6000611711601583610dff565b915061171c826116db565b602082019050919050565b6000602082019050818103600083015261174081611704565b9050919050565b7f4e487b7100000000000000000000000000000000000000000000000000000000600052603260045260246000fd5b7f5265717565737420616c726561647920617070726f7665640000000000000000600082015250565b60006117ac601883610dff565b91506117b782611776565b602082019050919050565b600060208201905081810360008301526117db8161179f565b9050919050565b7f416c726561647920706169640000000000000000000000000000000000000000600082015250565b6000611818600c83610dff565b9150611823826117e2565b602082019050919050565b600060208201905081810360008301526118478161180b565b9050919050565b7f496e73756666696369656e7420636f6e74726163742062616c616e6365000000600082015250565b6000611884601d83610dff565b915061188f8261184e565b602082019050919050565b600060208201905081810360008301526118b381611877565b905091905056fea264697066735822122059641b0eeacac85d3a6f15e5e7e542c8a4c7d36047f362fe8775af8b8981a98d64736f6c634300081c0033",
  "linkReferences": {},
  "deployedLinkReferences": {}
}